:100000000C942A000C9447000C9447000C94470071
:100010000C9447000C9447000C9447000C94470044
:100020000C9447000C9447000C9447000C949600E5
:100030000C9447000C9447000C945D000C9447000E
:100040000C9447000C9447000C9447000C94470014
:100050000C94470011241FBECFE5D4E0DEBFCDBF16
:1000600010E0A0E6B0E0E6ECF8E002C005900D92EA
:10007000A43AB107D9F710E0A4EAB0E001C01D929C
:10008000A53FB107E1F70E94DD020C9461040C94D6
:1000900000001BBA1ABA15BA8FEF84BB8FE782BB78
:1000A00080EF81BB089516B817B880E888B98FEE45
:1000B00086B98FB780688FBF08951F920F920FB6D1
:1000C0000F9211242F933F934F938F939F9384B15B
:1000D00045B1342F20E090E0822B932B9093E300E6
:1000E0008093E2009093E1008093E00015BE9F9121
:1000F0008F914F913F912F910F900FBE0F901F90B6
:1001000018951EBC81EA8FBD1BBC1ABC19BC8CEFB4
:1001100088BD8BE08EBD08951AB81BB886E880BDF7
:1001200083E389B910BC88E98AB908951F920F92B8
:100130000FB60F9211242F933F934F935F936F93BA
:100140007F938F939F93AF93BF939CB19093EA005B
:100150009C3FD0F48091E800813061F49093EB00F3
:10016000993218F088E28093EB008091EB008ABD11
:100170001092E8008091E900813071F49093EC00D6
:1001800098BD1092E90008C09E3F31F481E0809351
:10019000E8001092E90035C09D3F31F41092E8006C
:1001A00081E08093E9002DC09C3F21F48091A20062
:1001B0008CB927C09F3F29F52091E4003091E500DC
:1001C0003093F2002093F100C9016AE070E00E94D0
:1001D0003A04482F8093EF009093F000C9016AE041
:1001E00070E00E943A046093ED007093EE0060931B
:1001F000F3004093F4006CB94CB96CB94CB96CB9CC
:100200004CB9BF91AF919F918F917F916F915F9109
:100210004F913F912F910F900FBE0F901F90189507
:10022000F8941BBA1ABA15BA8FEF84BB8FE782BB5A
:1002300080EF81BB1EBC81EA8FBD1BBC1ABC19BC00
:100240008CEF88BD8BE08EBD1AB81BB886E880BDE8
:1002500083E389B910BC88E98AB916B817B880E871
:1002600088B98FEE86B98FB780688FBF80EC8BBF5F
:1002700080E489BF78940895AA9A0895AA98089569
:10028000AA9AAA980895DC01FA018C91807F808354
:100290008C918295807FFB01808380E0089595B3E7
:1002A0009F7095BB95B3982B95BBAA9AAA9885B3D6
:1002B0008F7085BB85B3862B85BBAA9AAA9880E2EE
:1002C0009EE40197F1F70895A89A95B39F7095BBA6
:1002D00095B3982B95BBAA9AAA9885B38F7085BBC6
:1002E00085B3862B85BBAA9AAA9880E29EE40197E3
:1002F000F1F7089580E29EE40197F1F7A89880EC69
:1003000060E00E944F0108958AE18A95F1F780E04C
:1003100060E10E944F010895AA9885B38F7085BB54
:10032000A89880E29EE40197F1F780E260E80E94DD
:100330004F0180E060EE0E944F0180E060E60E9485
:100340004F0108950F931F93CF93DF938091A800DF
:100350009091A900A091AA00B091AB008093AC004D
:100360009093AD00A093AE00B093AF006091E00019
:100370007091E100882777FD8095982F0E942703D0
:100380002FE23DED44E95FE30E94AF036093A800D4
:100390007093A9008093AA009093AB00CCEAD0E0C0
:1003A000688179818A819B8120E030E040E050E0E3
:1003B0000E94F002882361F48091A8009091A90026
:1003C000A091AA00B091AB0088839983AA83BB83D4
:1003D000249680E0C03DD80719F7FE013C96808145
:1003E0009181A281B38184839583A683B783349757
:1003F00080E0E83AF80799F7608171818281938102
:100400000E94F4028B019C017093E7006093E60068
:100410007093E3006093E2007093E5006093E40062
:10042000CB0164E670E00E943A04CB016AE070E020
:100430000E943A04C0969093810080938000C80186
:100440006AE070E00E943A04CB016AE070E00E942A
:100450003A04C09690938300809382008EE290E0ED
:100460009093850080938400C8016AE070E00E9448
:100470003A04C09690938700809386002091A20052
:100480003091A300C9016AE070E00E943A04C0966E
:1004900090939F0080939E00C9016AE070E00E94E3
:1004A0003A04CB016AE070E00E943A04C09690934F
:1004B0009D0080939C00C90164E670E00E943A04AC
:1004C000605D7F4F70939B0060939A002091EC00D9
:1004D000822F90E06AE070E00E943A04C096909308
:1004E0008F0080938E00822F90E06AE070E00E947F
:1004F0003A04CB016AE070E00E943A04C0969093FF
:100500008D0080938C00822F90E064E670E00E9462
:100510003A04605D7F4F70938B0060938A00209156
:10052000EB00822F90E06AE070E00E943A04C096EF
:100530009093970080939600822F90E06AE070E09D
:100540000E943A04CB016AE070E00E943A04C0962F
:100550009093950080939400822F90E064E670E081
:100560000E943A04605D7F4F709393006093920005
:100570000E948401C0E6D0E06881862F807F62956A
:10058000607F0E946401229680E0C038D807A1F7FE
:100590000E947A01C0E8D0E06881862F807F629552
:1005A000607F0E946401229680E0C03AD807A1F7DC
:1005B000DF91CF911F910F910895CF93DF930E9408
:1005C00010010E948C010E94A201C1E0D0E0D093F2
:1005D000A100C093A0000E9484010E94A201F7CF55
:1005E00071D008F481E0089504D06894B111B1C0CD
:1005F000089594D088F09F5790F0B92F9927B7515C
:10060000A0F0D1F0660F771F881F991F1AF0BA95D6
:10061000C9F712C0B13081F09BD0B1E0089598C005
:10062000672F782F8827B85F39F0B93FCCF38695CC
:1006300077956795B395D9F73EF490958095709529
:1006400061957F4F8F4F9F4F0895E89409C097FBA6
:100650003EF490958095709561957F4F8F4F9F4F99
:100660009923A9F0F92F96E9BB279395F6958795DD
:1006700077956795B795F111F8CFFAF4BB0F11F4A0
:1006800060FF1BC06F5F7F4F8F4F9F4F16C0882347
:1006900011F096E911C0772321F09EE8872F762F7D
:1006A00005C0662371F096E8862F70E060E02AF0BE
:1006B0009A95660F771F881FDAF7880F96958795AA
:1006C00097F90895990F0008550FAA0BE0E8FEEF7F
:1006D00016161706E807F907C0F012161306E40706
:1006E000F50798F0621B730B840B950B39F40A26FF
:1006F00061F0232B242B252B21F408950A2609F4DD
:10070000A140A6958FEF811D811D089557FD90583A
:10071000440F551F59F05F3F71F04795880F97FBC5
:10072000991F61F09F3F79F087950895121613067F
:100730001406551FF2CF4695F1DF08C016161706AE
:100740001806991FF1CF86957105610508940895E3
:10075000E894BB2766277727CB0197F908950BD03C
:1007600078C069D028F06ED018F0952309F05AC0EF
:100770005FC01124EECFCADFA0F3959FD1F3950F90
:1007800050E0551F629FF001729FBB27F00DB11D15
:10079000639FAA27F00DB11DAA1F649F6627B00DA5
:1007A000A11D661F829F2227B00DA11D621F739F8E
:1007B000B00DA11D621F839FA00D611D221F749F9C
:1007C0003327A00D611D231F849F600D211D822FE3
:1007D000762F6A2F11249F5750408AF0E1F088232A
:1007E0004AF0EE0FFF1FBB1F661F771F881F915037
:1007F0005040A9F79E3F510570F014C0AACF5F3F4B
:10080000ECF3983EDCF3869577956795B795F79569
:10081000E7959F5FC1F7FE2B880F911D96958795F1
:1008200097F9089597F99F6780E870E060E0089570
:100830009FEF80EC089500240A94161617061806F8
:100840000906089500240A941216130614060506D4
:100850000895092E0394000C11F4882352F0BB0F65
:1008600040F4BF2B11F460FF04C06F5F7F4F8F4FC8
:100870009F4F089597FB092E07260AD077FD04D0D5
:100880000CD006D000201AF4709561957F4F089522
:10089000F6F7909581959F4F0895AA1BBB1B51E1D8
:1008A00007C0AA1FBB1FA617B70710F0A61BB70BE0
:1008B000881F991F5A95A9F780959095BC01CD0185
:0608C0000895F894FFCF3B
:1008C600540045004D0050002000460041004E00F7
:1008D600200048004500410020004D00490044002A
:1008E6002000200020002000200020002000200002
:1008F60020002000200020002000200020002000F2
:0409060001000F00DD
:00000001FF
